{
  "_format": "hh-sol-artifact-1",
  "contractName": "TestFactory",
  "sourceName": "contracts/TestFactory.sol",
  "abi": [
    {
      "inputs": [
        {
          "internalType": "uint256",
          "name": "_fee",
          "type": "uint256"
        }
      ],
      "stateMutability": "nonpayable",
      "type": "constructor"
    },
    {
      "anonymous": false,
      "inputs": [
        {
          "indexed": true,
          "internalType": "address",
          "name": "token",
          "type": "address"
        },
        {
          "indexed": false,
          "internalType": "uint256",
          "name": "amount",
          "type": "uint256"
        }
      ],
      "name": "buyToken",
      "type": "event"
    },
    {
      "anonymous": false,
      "inputs": [
        {
          "indexed": true,
          "internalType": "address",
          "name": "token",
          "type": "address"
        }
      ],
      "name": "created",
      "type": "event"
    },
    {
      "inputs": [],
      "name": "FEE",
      "outputs": [
        {
          "internalType": "uint256",
          "name": "",
          "type": "uint256"
        }
      ],
      "stateMutability": "view",
      "type": "function"
    },
    {
      "inputs": [],
      "name": "TARGET",
      "outputs": [
        {
          "internalType": "uint256",
          "name": "",
          "type": "uint256"
        }
      ],
      "stateMutability": "view",
      "type": "function"
    },
    {
      "inputs": [],
      "name": "TOKEN_LIMIT",
      "outputs": [
        {
          "internalType": "uint256",
          "name": "",
          "type": "uint256"
        }
      ],
      "stateMutability": "view",
      "type": "function"
    },
    {
      "inputs": [
        {
          "internalType": "address",
          "name": "_token",
          "type": "address"
        },
        {
          "internalType": "uint256",
          "name": "_amount",
          "type": "uint256"
        }
      ],
      "name": "buy",
      "outputs": [],
      "stateMutability": "payable",
      "type": "function"
    },
    {
      "inputs": [
        {
          "internalType": "string",
          "name": "_name",
          "type": "string"
        },
        {
          "internalType": "string",
          "name": "_symbol",
          "type": "string"
        }
      ],
      "name": "create",
      "outputs": [],
      "stateMutability": "payable",
      "type": "function"
    },
    {
      "inputs": [
        {
          "internalType": "address",
          "name": "_token",
          "type": "address"
        }
      ],
      "name": "deposit",
      "outputs": [],
      "stateMutability": "nonpayable",
      "type": "function"
    },
    {
      "inputs": [
        {
          "internalType": "uint256",
          "name": "_sold",
          "type": "uint256"
        }
      ],
      "name": "getCost",
      "outputs": [
        {
          "internalType": "uint256",
          "name": "",
          "type": "uint256"
        }
      ],
      "stateMutability": "pure",
      "type": "function"
    },
    {
      "inputs": [
        {
          "internalType": "uint256",
          "name": "_index",
          "type": "uint256"
        }
      ],
      "name": "getToken",
      "outputs": [
        {
          "components": [
            {
              "internalType": "address",
              "name": "token",
              "type": "address"
            },
            {
              "internalType": "string",
              "name": "name",
              "type": "string"
            },
            {
              "internalType": "address",
              "name": "creator",
              "type": "address"
            },
            {
              "internalType": "uint256",
              "name": "sold",
              "type": "uint256"
            },
            {
              "internalType": "uint256",
              "name": "raised",
              "type": "uint256"
            },
            {
              "internalType": "bool",
              "name": "isOpen",
              "type": "bool"
            }
          ],
          "internalType": "struct TestFactory.TokenSale",
          "name": "",
          "type": "tuple"
        }
      ],
      "stateMutability": "view",
      "type": "function"
    },
    {
      "inputs": [],
      "name": "owner",
      "outputs": [
        {
          "internalType": "address",
          "name": "",
          "type": "address"
        }
      ],
      "stateMutability": "view",
      "type": "function"
    },
    {
      "inputs": [
        {
          "internalType": "address",
          "name": "",
          "type": "address"
        }
      ],
      "name": "tokenToSale",
      "outputs": [
        {
          "internalType": "address",
          "name": "token",
          "type": "address"
        },
        {
          "internalType": "string",
          "name": "name",
          "type": "string"
        },
        {
          "internalType": "address",
          "name": "creator",
          "type": "address"
        },
        {
          "internalType": "uint256",
          "name": "sold",
          "type": "uint256"
        },
        {
          "internalType": "uint256",
          "name": "raised",
          "type": "uint256"
        },
        {
          "internalType": "bool",
          "name": "isOpen",
          "type": "bool"
        }
      ],
      "stateMutability": "view",
      "type": "function"
    },
    {
      "inputs": [
        {
          "internalType": "uint256",
          "name": "",
          "type": "uint256"
        }
      ],
      "name": "tokens",
      "outputs": [
        {
          "internalType": "address",
          "name": "",
          "type": "address"
        }
      ],
      "stateMutability": "view",
      "type": "function"
    },
    {
      "inputs": [],
      "name": "totalTokens",
      "outputs": [
        {
          "internalType": "uint256",
          "name": "",
          "type": "uint256"
        }
      ],
      "stateMutability": "view",
      "type": "function"
    },
    {
      "inputs": [
        {
          "internalType": "uint256",
          "name": "_amount",
          "type": "uint256"
        }
      ],
      "name": "withdraw",
      "outputs": [],
      "stateMutability": "nonpayable",
      "type": "function"
    }
  ],
  "bytecode": "0x60c060405234801561001057600080fd5b50604051613c21380380613c21833981810160405281019061003291906100af565b80608081815250503373ffffffffffffffffffffffffffffffffffffffff1660a08173ffffffffffffffffffffffffffffffffffffffff1681525050506100dc565b600080fd5b6000819050919050565b61008c81610079565b811461009757600080fd5b50565b6000815190506100a981610083565b92915050565b6000602082840312156100c5576100c4610074565b5b60006100d38482850161009a565b91505092915050565b60805160a051613b0b6101166000396000818161061b015281816106ab0152610816015260008181610331015261094b0152613b0b6000f3fe6080604052600436106100c25760003560e01c80638da5cb5b1161007f578063cc1f2afa11610059578063cc1f2afa14610274578063cce7ec131461029f578063e4b50cb8146102bb578063f340fa01146102f8576100c2565b80638da5cb5b146101dc5780639c0ad5ed14610207578063c57981b514610249576100c2565b8063031bd4c4146100c7578063198e2b8a146100f25780632e1a7d4d1461010e5780634f64b2be146101375780635a4dd47d146101745780637e1c0c09146101b1575b600080fd5b3480156100d357600080fd5b506100dc610321565b6040516100e991906112c8565b60405180910390f35b61010c6004803603810190610107919061143d565b61032f565b005b34801561011a57600080fd5b50610135600480360381019061013091906114e1565b610619565b005b34801561014357600080fd5b5061015e600480360381019061015991906114e1565b610777565b60405161016b919061154f565b60405180910390f35b34801561018057600080fd5b5061019b600480360381019061019691906114e1565b6107b6565b6040516101a891906112c8565b60405180910390f35b3480156101bd57600080fd5b506101c661080e565b6040516101d391906112c8565b60405180910390f35b3480156101e857600080fd5b506101f1610814565b6040516101fe919061154f565b60405180910390f35b34801561021357600080fd5b5061022e60048036038101906102299190611596565b610838565b6040516102409695949392919061165d565b60405180910390f35b34801561025557600080fd5b5061025e610949565b60405161026b91906112c8565b60405180910390f35b34801561028057600080fd5b5061028961096d565b60405161029691906112c8565b60405180910390f35b6102b960048036038101906102b491906116c5565b610979565b005b3480156102c757600080fd5b506102e260048036038101906102dd91906114e1565b610c79565b6040516102ef9190611805565b60405180910390f35b34801561030457600080fd5b5061031f600480360381019061031a9190611596565b610e7d565b005b6969e10de76676d080000081565b7f00000000000000000000000000000000000000000000000000000000000000003414610391576040517f08c379a000000000000000000000000000000000000000000000000000000000815260040161038890611873565b60405180910390fd5b600033838369d3c21bcecceda10000006040516103ad9061123e565b6103ba94939291906118d8565b604051809103906000f0801580156103d6573d6000803e3d6000fd5b5090506001819080600181540180825580915050600190039060005260206000200160009091909190916101000a81548173ffffffffffffffffffffffffffffffffffffffff021916908373ffffffffffffffffffffffffffffffffffffffff16021790555060008081548092919061044e9061195a565b919050555060006040518060c001604052808373ffffffffffffffffffffffffffffffffffffffff1681526020018581526020013373ffffffffffffffffffffffffffffffffffffffff168152602001600081526020016000815260200160011515815250905080600260008473ffffffffffffffffffffffffffffffffffffffff1673ffffffffffffffffffffffffffffffffffffffff16815260200190815260200160002060008201518160000160006101000a81548173ffffffffffffffffffffffffffffffffffffffff021916908373ffffffffffffffffffffffffffffffffffffffff16021790555060208201518160010190816105519190611ba4565b5060408201518160020160006101000a81548173ffffffffffffffffffffffffffffffffffffffff021916908373ffffffffffffffffffffffffffffffffffffffff160217905550606082015181600301556080820151816004015560a08201518160050160006101000a81548160ff0219169083151502179055509050508173ffffffffffffffffffffffffffffffffffffffff167fd42efd83974d1c72972b3f04b70c897fca3c5befd9edca06f91e3034b0665bfc60405160405180910390a250505050565b7f000000000000000000000000000000000000000000000000000000000000000073ffffffffffffffffffffffffffffffffffffffff163373ffffffffffffffffffffffffffffffffffffffff16146106a7576040517f08c379a000000000000000000000000000000000000000000000000000000000815260040161069e90611cc2565b60405180910390fd5b60007f000000000000000000000000000000000000000000000000000000000000000073ffffffffffffffffffffffffffffffffffffffff16826040516106ed90611d13565b60006040518083038185875af1925050503d806000811461072a576040519150601f19603f3d011682016040523d82523d6000602084013e61072f565b606091505b5050905080610773576040517f08c379a000000000000000000000000000000000000000000000000000000000815260040161076a90611d74565b60405180910390fd5b5050565b6001818154811061078757600080fd5b906000526020600020016000915054906101000a900473ffffffffffffffffffffffffffffffffffffffff1681565b600080655af3107a400090506000655af3107a40009050600069021e19e0c9bab2400000905060008382876107eb9190611dc3565b846107f69190611df4565b6108009190611e36565b905080945050505050919050565b60005481565b7f000000000000000000000000000000000000000000000000000000000000000081565b60026020528060005260406000206000915090508060000160009054906101000a900473ffffffffffffffffffffffffffffffffffffffff1690806001018054610881906119d1565b80601f01602080910402602001604051908101604052809291908181526020018280546108ad906119d1565b80156108fa5780601f106108cf576101008083540402835291602001916108fa565b820191906000526020600020905b8154815290600101906020018083116108dd57829003601f168201915b5050505050908060020160009054906101000a900473ffffffffffffffffffffffffffffffffffffffff16908060030154908060040154908060050160009054906101000a900460ff16905086565b7f000000000000000000000000000000000000000000000000000000000000000081565b6729a2241af62c000081565b6000600260008473ffffffffffffffffffffffffffffffffffffffff1673ffffffffffffffffffffffffffffffffffffffff1681526020019081526020016000209050600115158160050160009054906101000a900460ff16151514610a14576040517f08c379a0000000000000000000000000000000000000000000000000000000008152600401610a0b90611eb6565b60405180910390fd5b670de0b6b3a7640000821015610a5f576040517f08c379a0000000000000000000000000000000000000000000000000000000008152600401610a5690611f22565b60405180910390fd5b69021e19e0c9bab2400000821115610aac576040517f08c379a0000000000000000000000000000000000000000000000000000000008152600401610aa390611f8e565b60405180910390fd5b6000610abb82600301546107b6565b90506000670de0b6b3a764000084610ad39190611dc3565b82610ade9190611df4565b905080341015610b23576040517f08c379a0000000000000000000000000000000000000000000000000000000008152600401610b1a90611ffa565b60405180910390fd5b80836004016000828254610b379190611e36565b9250508190555083836003016000828254610b529190611e36565b925050819055506729a2241af62c00008360040154101580610b8257506969e10de76676d0800000836003015410155b15610ba55760008360050160006101000a81548160ff0219169083151502179055505b8473ffffffffffffffffffffffffffffffffffffffff1663a9059cbb33866040518363ffffffff1660e01b8152600401610be092919061201a565b6020604051808303816000875af1158015610bff573d6000803e3d6000fd5b505050506040513d601f19601f82011682018060405250810190610c23919061206f565b508473ffffffffffffffffffffffffffffffffffffffff167f68f8fc10c7e0ab26c19e8620918d8d6964a0a10f0a9ac17833a58e5f9ed3e23385604051610c6a91906112c8565b60405180910390a25050505050565b610c8161124b565b6002600060018481548110610c9957610c9861209c565b5b9060005260206000200160009054906101000a900473ffffffffffffffffffffffffffffffffffffffff1673ffffffffffffffffffffffffffffffffffffffff1673ffffffffffffffffffffffffffffffffffffffff1681526020019081526020016000206040518060c00160405290816000820160009054906101000a900473ffffffffffffffffffffffffffffffffffffffff1673ffffffffffffffffffffffffffffffffffffffff1673ffffffffffffffffffffffffffffffffffffffff168152602001600182018054610d6f906119d1565b80601f0160208091040260200160405190810160405280929190818152602001828054610d9b906119d1565b8015610de85780601f10610dbd57610100808354040283529160200191610de8565b820191906000526020600020905b815481529060010190602001808311610dcb57829003601f168201915b505050505081526020016002820160009054906101000a900473ffffffffffffffffffffffffffffffffffffffff1673ffffffffffffffffffffffffffffffffffffffff1673ffffffffffffffffffffffffffffffffffffffff16815260200160038201548152602001600482015481526020016005820160009054906101000a900460ff1615151515815250509050919050565b60008190506000600260008473ffffffffffffffffffffffffffffffffffffffff1673ffffffffffffffffffffffffffffffffffffffff1681526020019081526020016000206040518060c00160405290816000820160009054906101000a900473ffffffffffffffffffffffffffffffffffffffff1673ffffffffffffffffffffffffffffffffffffffff1673ffffffffffffffffffffffffffffffffffffffff168152602001600182018054610f34906119d1565b80601f0160208091040260200160405190810160405280929190818152602001828054610f60906119d1565b8015610fad5780601f10610f8257610100808354040283529160200191610fad565b820191906000526020600020905b815481529060010190602001808311610f9057829003601f168201915b505050505081526020016002820160009054906101000a900473ffffffffffffffffffffffffffffffffffffffff1673ffffffffffffffffffffffffffffffffffffffff1673ffffffffffffffffffffffffffffffffffffffff16815260200160038201548152602001600482015481526020016005820160009054906101000a900460ff1615151515815250509050600015158160a00151151514611088576040517f08c379a000000000000000000000000000000000000000000000000000000000815260040161107f90612117565b60405180910390fd5b8173ffffffffffffffffffffffffffffffffffffffff1663a9059cbb82604001518473ffffffffffffffffffffffffffffffffffffffff166370a08231306040518263ffffffff1660e01b81526004016110e2919061154f565b602060405180830381865afa1580156110ff573d6000803e3d6000fd5b505050506040513d601f19601f82011682018060405250810190611123919061214c565b6040518363ffffffff1660e01b815260040161114092919061201a565b6020604051808303816000875af115801561115f573d6000803e3d6000fd5b505050506040513d601f19601f82011682018060405250810190611183919061206f565b506000816040015173ffffffffffffffffffffffffffffffffffffffff1682608001516040516111b290611d13565b60006040518083038185875af1925050503d80600081146111ef576040519150601f19603f3d011682016040523d82523d6000602084013e6111f4565b606091505b5050905080611238576040517f08c379a000000000000000000000000000000000000000000000000000000000815260040161122f90611d74565b60405180910390fd5b50505050565b61195c8061217a83390190565b6040518060c00160405280600073ffffffffffffffffffffffffffffffffffffffff16815260200160608152602001600073ffffffffffffffffffffffffffffffffffffffff16815260200160008152602001600081526020016000151581525090565b6000819050919050565b6112c2816112af565b82525050565b60006020820190506112dd60008301846112b9565b92915050565b6000604051905090565b600080fd5b600080fd5b600080fd5b600080fd5b6000601f19601f8301169050919050565b7f4e487b7100000000000000000000000000000000000000000000000000000000600052604160045260246000fd5b61134a82611301565b810181811067ffffffffffffffff8211171561136957611368611312565b5b80604052505050565b600061137c6112e3565b90506113888282611341565b919050565b600067ffffffffffffffff8211156113a8576113a7611312565b5b6113b182611301565b9050602081019050919050565b82818337600083830152505050565b60006113e06113db8461138d565b611372565b9050828152602081018484840111156113fc576113fb6112fc565b5b6114078482856113be565b509392505050565b600082601f830112611424576114236112f7565b5b81356114348482602086016113cd565b91505092915050565b60008060408385031215611454576114536112ed565b5b600083013567ffffffffffffffff811115611472576114716112f2565b5b61147e8582860161140f565b925050602083013567ffffffffffffffff81111561149f5761149e6112f2565b5b6114ab8582860161140f565b9150509250929050565b6114be816112af565b81146114c957600080fd5b50565b6000813590506114db816114b5565b92915050565b6000602082840312156114f7576114f66112ed565b5b6000611505848285016114cc565b91505092915050565b600073ffffffffffffffffffffffffffffffffffffffff82169050919050565b60006115398261150e565b9050919050565b6115498161152e565b82525050565b60006020820190506115646000830184611540565b92915050565b6115738161152e565b811461157e57600080fd5b50565b6000813590506115908161156a565b92915050565b6000602082840312156115ac576115ab6112ed565b5b60006115ba84828501611581565b91505092915050565b600081519050919050565b600082825260208201905092915050565b60005b838110156115fd5780820151818401526020810190506115e2565b60008484015250505050565b6000611614826115c3565b61161e81856115ce565b935061162e8185602086016115df565b61163781611301565b840191505092915050565b60008115159050919050565b61165781611642565b82525050565b600060c0820190506116726000830189611540565b81810360208301526116848188611609565b90506116936040830187611540565b6116a060608301866112b9565b6116ad60808301856112b9565b6116ba60a083018461164e565b979650505050505050565b600080604083850312156116dc576116db6112ed565b5b60006116ea85828601611581565b92505060206116fb858286016114cc565b9150509250929050565b61170e8161152e565b82525050565b600082825260208201905092915050565b6000611730826115c3565b61173a8185611714565b935061174a8185602086016115df565b61175381611301565b840191505092915050565b611767816112af565b82525050565b61177681611642565b82525050565b600060c0830160008301516117946000860182611705565b50602083015184820360208601526117ac8282611725565b91505060408301516117c16040860182611705565b5060608301516117d4606086018261175e565b5060808301516117e7608086018261175e565b5060a08301516117fa60a086018261176d565b508091505092915050565b6000602082019050818103600083015261181f818461177c565b905092915050565b7f496e73756666696369656e742046656500000000000000000000000000000000600082015250565b600061185d6010836115ce565b915061186882611827565b602082019050919050565b6000602082019050818103600083015261188c81611850565b9050919050565b6000819050919050565b6000819050919050565b60006118c26118bd6118b884611893565b61189d565b6112af565b9050919050565b6118d2816118a7565b82525050565b60006080820190506118ed6000830187611540565b81810360208301526118ff8186611609565b905081810360408301526119138185611609565b905061192260608301846118c9565b95945050505050565b7f4e487b7100000000000000000000000000000000000000000000000000000000600052601160045260246000fd5b6000611965826112af565b91507fffffffffffffffffffffffffffffffffffffffffffffffffffffffffffffffff82036119975761199661192b565b5b600182019050919050565b7f4e487b7100000000000000000000000000000000000000000000000000000000600052602260045260246000fd5b600060028204905060018216806119e957607f821691505b6020821081036119fc576119fb6119a2565b5b50919050565b60008190508160005260206000209050919050565b60006020601f8301049050919050565b600082821b905092915050565b600060088302611a647fffffffffffffffffffffffffffffffffffffffffffffffffffffffffffffffff82611a27565b611a6e8683611a27565b95508019841693508086168417925050509392505050565b6000611aa1611a9c611a97846112af565b61189d565b6112af565b9050919050565b6000819050919050565b611abb83611a86565b611acf611ac782611aa8565b848454611a34565b825550505050565b600090565b611ae4611ad7565b611aef818484611ab2565b505050565b5b81811015611b1357611b08600082611adc565b600181019050611af5565b5050565b601f821115611b5857611b2981611a02565b611b3284611a17565b81016020851015611b41578190505b611b55611b4d85611a17565b830182611af4565b50505b505050565b600082821c905092915050565b6000611b7b60001984600802611b5d565b1980831691505092915050565b6000611b948383611b6a565b9150826002028217905092915050565b611bad826115c3565b67ffffffffffffffff811115611bc657611bc5611312565b5b611bd082546119d1565b611bdb828285611b17565b600060209050601f831160018114611c0e5760008415611bfc578287015190505b611c068582611b88565b865550611c6e565b601f198416611c1c86611a02565b60005b82811015611c4457848901518255600182019150602085019450602081019050611c1f565b86831015611c615784890151611c5d601f891682611b6a565b8355505b6001600288020188555050505b505050505050565b7f4f6e6c79206f776e65722063616e20776974686472617720616d6f756e740000600082015250565b6000611cac601e836115ce565b9150611cb782611c76565b602082019050919050565b60006020820190508181036000830152611cdb81611c9f565b9050919050565b600081905092915050565b50565b6000611cfd600083611ce2565b9150611d0882611ced565b600082019050919050565b6000611d1e82611cf0565b9150819050919050565b7f6661696c656420746f207472616e736665720000000000000000000000000000600082015250565b6000611d5e6012836115ce565b9150611d6982611d28565b602082019050919050565b60006020820190508181036000830152611d8d81611d51565b9050919050565b7f4e487b7100000000000000000000000000000000000000000000000000000000600052601260045260246000fd5b6000611dce826112af565b9150611dd9836112af565b925082611de957611de8611d94565b5b828204905092915050565b6000611dff826112af565b9150611e0a836112af565b9250828202611e18816112af565b91508282048414831517611e2f57611e2e61192b565b5b5092915050565b6000611e41826112af565b9150611e4c836112af565b9250828201905080821115611e6457611e6361192b565b5b92915050565b7f53616c6520697320636c6f736564000000000000000000000000000000000000600082015250565b6000611ea0600e836115ce565b9150611eab82611e6a565b602082019050919050565b60006020820190508181036000830152611ecf81611e93565b9050919050565b7f416d6f756e74206973206c6f7700000000000000000000000000000000000000600082015250565b6000611f0c600d836115ce565b9150611f1782611ed6565b602082019050919050565b60006020820190508181036000830152611f3b81611eff565b9050919050565b7f416d6f7574206578636565646564000000000000000000000000000000000000600082015250565b6000611f78600e836115ce565b9150611f8382611f42565b602082019050919050565b60006020820190508181036000830152611fa781611f6b565b9050919050565b7f496e73756666696369656e742045544820726563656976656400000000000000600082015250565b6000611fe46019836115ce565b9150611fef82611fae565b602082019050919050565b6000602082019050818103600083015261201381611fd7565b9050919050565b600060408201905061202f6000830185611540565b61203c60208301846112b9565b9392505050565b61204c81611642565b811461205757600080fd5b50565b60008151905061206981612043565b92915050565b600060208284031215612085576120846112ed565b5b60006120938482850161205a565b91505092915050565b7f4e487b7100000000000000000000000000000000000000000000000000000000600052603260045260246000fd5b7f53616c65206973206e6f7420636c6f7365207965740000000000000000000000600082015250565b60006121016015836115ce565b915061210c826120cb565b602082019050919050565b60006020820190508181036000830152612130816120f4565b9050919050565b600081519050612146816114b5565b92915050565b600060208284031215612162576121616112ed565b5b600061217084828501612137565b9150509291505056fe608060405234801561001057600080fd5b5060405161195c38038061195c833981810160405281019061003291906105a7565b82828160039081610043919061085d565b508060049081610053919061085d565b50505033600560006101000a81548173ffffffffffffffffffffffffffffffffffffffff021916908373ffffffffffffffffffffffffffffffffffffffff16021790555083600660006101000a81548173ffffffffffffffffffffffffffffffffffffffff021916908373ffffffffffffffffffffffffffffffffffffffff1602179055506100e833826100f160201b60201c565b50505050610a1d565b600073ffffffffffffffffffffffffffffffffffffffff168273ffffffffffffffffffffffffffffffffffffffff16036101635760006040517fec442f0500000000000000000000000000000000000000000000000000000000815260040161015a919061093e565b60405180910390fd5b6101756000838361017960201b60201c565b5050565b600073ffffffffffffffffffffffffffffffffffffffff168373ffffffffffffffffffffffffffffffffffffffff16036101cb5780600260008282546101bf9190610988565b9250508190555061029e565b60008060008573ffffffffffffffffffffffffffffffffffffffff1673ffffffffffffffffffffffffffffffffffffffff16815260200190815260200160002054905081811015610257578381836040517fe450d38c00000000000000000000000000000000000000000000000000000000815260040161024e939291906109cb565b60405180910390fd5b8181036000808673ffffffffffffffffffffffffffffffffffffffff1673ffffffffffffffffffffffffffffffffffffffff16815260200190815260200160002081905550505b600073ffffffffffffffffffffffffffffffffffffffff168273ffffffffffffffffffffffffffffffffffffffff16036102e75780600260008282540392505081905550610334565b806000808473ffffffffffffffffffffffffffffffffffffffff1673ffffffffffffffffffffffffffffffffffffffff168152602001908152602001600020600082825401925050819055505b8173ffffffffffffffffffffffffffffffffffffffff168373ffffffffffffffffffffffffffffffffffffffff167fddf252ad1be2c89b69c2b068fc378daa952ba7f163c4a11628f55a4df523b3ef836040516103919190610a02565b60405180910390a3505050565b6000604051905090565b600080fd5b600080fd5b600073ffffffffffffffffffffffffffffffffffffffff82169050919050565b60006103dd826103b2565b9050919050565b6103ed816103d2565b81146103f857600080fd5b50565b60008151905061040a816103e4565b92915050565b600080fd5b600080fd5b6000601f19601f8301169050919050565b7f4e487b7100000000000000000000000000000000000000000000000000000000600052604160045260246000fd5b6104638261041a565b810181811067ffffffffffffffff821117156104825761048161042b565b5b80604052505050565b600061049561039e565b90506104a1828261045a565b919050565b600067ffffffffffffffff8211156104c1576104c061042b565b5b6104ca8261041a565b9050602081019050919050565b60005b838110156104f55780820151818401526020810190506104da565b60008484015250505050565b600061051461050f846104a6565b61048b565b9050828152602081018484840111156105305761052f610415565b5b61053b8482856104d7565b509392505050565b600082601f83011261055857610557610410565b5b8151610568848260208601610501565b91505092915050565b6000819050919050565b61058481610571565b811461058f57600080fd5b50565b6000815190506105a18161057b565b92915050565b600080600080608085870312156105c1576105c06103a8565b5b60006105cf878288016103fb565b945050602085015167ffffffffffffffff8111156105f0576105ef6103ad565b5b6105fc87828801610543565b935050604085015167ffffffffffffffff81111561061d5761061c6103ad565b5b61062987828801610543565b925050606061063a87828801610592565b91505092959194509250565b600081519050919050565b7f4e487b7100000000000000000000000000000000000000000000000000000000600052602260045260246000fd5b6000600282049050600182168061069857607f821691505b6020821081036106ab576106aa610651565b5b50919050565b60008190508160005260206000209050919050565b60006020601f8301049050919050565b600082821b905092915050565b6000600883026107137fffffffffffffffffffffffffffffffffffffffffffffffffffffffffffffffff826106d6565b61071d86836106d6565b95508019841693508086168417925050509392505050565b6000819050919050565b600061075a61075561075084610571565b610735565b610571565b9050919050565b6000819050919050565b6107748361073f565b61078861078082610761565b8484546106e3565b825550505050565b600090565b61079d610790565b6107a881848461076b565b505050565b5b818110156107cc576107c1600082610795565b6001810190506107ae565b5050565b601f821115610811576107e2816106b1565b6107eb846106c6565b810160208510156107fa578190505b61080e610806856106c6565b8301826107ad565b50505b505050565b600082821c905092915050565b600061083460001984600802610816565b1980831691505092915050565b600061084d8383610823565b9150826002028217905092915050565b61086682610646565b67ffffffffffffffff81111561087f5761087e61042b565b5b6108898254610680565b6108948282856107d0565b600060209050601f8311600181146108c757600084156108b5578287015190505b6108bf8582610841565b865550610927565b601f1984166108d5866106b1565b60005b828110156108fd578489015182556001820191506020850194506020810190506108d8565b8683101561091a5784890151610916601f891682610823565b8355505b6001600288020188555050505b505050505050565b610938816103d2565b82525050565b6000602082019050610953600083018461092f565b92915050565b7f4e487b7100000000000000000000000000000000000000000000000000000000600052601160045260246000fd5b600061099382610571565b915061099e83610571565b92508282019050808211156109b6576109b5610959565b5b92915050565b6109c581610571565b82525050565b60006060820190506109e0600083018661092f565b6109ed60208301856109bc565b6109fa60408301846109bc565b949350505050565b6000602082019050610a1760008301846109bc565b92915050565b610f3080610a2c6000396000f3fe608060405234801561001057600080fd5b50600436106100a95760003560e01c8063313ce56711610071578063313ce5671461016857806370a08231146101865780638da5cb5b146101b657806395d89b41146101d4578063a9059cbb146101f2578063dd62ed3e14610222576100a9565b806302d05d3f146100ae57806306fdde03146100cc578063095ea7b3146100ea57806318160ddd1461011a57806323b872dd14610138575b600080fd5b6100b6610252565b6040516100c39190610af9565b60405180910390f35b6100d4610278565b6040516100e19190610ba4565b60405180910390f35b61010460048036038101906100ff9190610c2d565b61030a565b6040516101119190610c88565b60405180910390f35b61012261032d565b60405161012f9190610cb2565b60405180910390f35b610152600480360381019061014d9190610ccd565b610337565b60405161015f9190610c88565b60405180910390f35b610170610366565b60405161017d9190610d3c565b60405180910390f35b6101a0600480360381019061019b9190610d57565b61036f565b6040516101ad9190610cb2565b60405180910390f35b6101be6103b7565b6040516101cb9190610da5565b60405180910390f35b6101dc6103dd565b6040516101e99190610ba4565b60405180910390f35b61020c60048036038101906102079190610c2d565b61046f565b6040516102199190610c88565b60405180910390f35b61023c60048036038101906102379190610dc0565b610492565b6040516102499190610cb2565b60405180910390f35b600660009054906101000a900473ffffffffffffffffffffffffffffffffffffffff1681565b60606003805461028790610e2f565b80601f01602080910402602001604051908101604052809291908181526020018280546102b390610e2f565b80156103005780601f106102d557610100808354040283529160200191610300565b820191906000526020600020905b8154815290600101906020018083116102e357829003601f168201915b5050505050905090565b600080610315610519565b9050610322818585610521565b600191505092915050565b6000600254905090565b600080610342610519565b905061034f858285610533565b61035a8585856105c8565b60019150509392505050565b60006012905090565b60008060008373ffffffffffffffffffffffffffffffffffffffff1673ffffffffffffffffffffffffffffffffffffffff168152602001908152602001600020549050919050565b600560009054906101000a900473ffffffffffffffffffffffffffffffffffffffff1681565b6060600480546103ec90610e2f565b80601f016020809104026020016040519081016040528092919081815260200182805461041890610e2f565b80156104655780601f1061043a57610100808354040283529160200191610465565b820191906000526020600020905b81548152906001019060200180831161044857829003601f168201915b5050505050905090565b60008061047a610519565b90506104878185856105c8565b600191505092915050565b6000600160008473ffffffffffffffffffffffffffffffffffffffff1673ffffffffffffffffffffffffffffffffffffffff16815260200190815260200160002060008373ffffffffffffffffffffffffffffffffffffffff1673ffffffffffffffffffffffffffffffffffffffff16815260200190815260200160002054905092915050565b600033905090565b61052e83838360016106bc565b505050565b600061053f8484610492565b90507fffffffffffffffffffffffffffffffffffffffffffffffffffffffffffffffff8110156105c257818110156105b2578281836040517ffb8f41b20000000000000000000000000000000000000000000000000000000081526004016105a993929190610e60565b60405180910390fd5b6105c1848484840360006106bc565b5b50505050565b600073ffffffffffffffffffffffffffffffffffffffff168373ffffffffffffffffffffffffffffffffffffffff160361063a5760006040517f96c6fd1e0000000000000000000000000000000000000000000000000000000081526004016106319190610af9565b60405180910390fd5b600073ffffffffffffffffffffffffffffffffffffffff168273ffffffffffffffffffffffffffffffffffffffff16036106ac5760006040517fec442f050000000000000000000000000000000000000000000000000000000081526004016106a39190610af9565b60405180910390fd5b6106b7838383610893565b505050565b600073ffffffffffffffffffffffffffffffffffffffff168473ffffffffffffffffffffffffffffffffffffffff160361072e5760006040517fe602df050000000000000000000000000000000000000000000000000000000081526004016107259190610af9565b60405180910390fd5b600073ffffffffffffffffffffffffffffffffffffffff168373ffffffffffffffffffffffffffffffffffffffff16036107a05760006040517f94280d620000000000000000000000000000000000000000000000000000000081526004016107979190610af9565b60405180910390fd5b81600160008673ffffffffffffffffffffffffffffffffffffffff1673ffffffffffffffffffffffffffffffffffffffff16815260200190815260200160002060008573ffffffffffffffffffffffffffffffffffffffff1673ffffffffffffffffffffffffffffffffffffffff16815260200190815260200160002081905550801561088d578273ffffffffffffffffffffffffffffffffffffffff168473ffffffffffffffffffffffffffffffffffffffff167f8c5be1e5ebec7d5bd14f71427d1e84f3dd0314c0f7b2291e5b200ac8c7c3b925846040516108849190610cb2565b60405180910390a35b50505050565b600073ffffffffffffffffffffffffffffffffffffffff168373ffffffffffffffffffffffffffffffffffffffff16036108e55780600260008282546108d99190610ec6565b925050819055506109b8565b60008060008573ffffffffffffffffffffffffffffffffffffffff1673ffffffffffffffffffffffffffffffffffffffff16815260200190815260200160002054905081811015610971578381836040517fe450d38c00000000000000000000000000000000000000000000000000000000815260040161096893929190610e60565b60405180910390fd5b8181036000808673ffffffffffffffffffffffffffffffffffffffff1673ffffffffffffffffffffffffffffffffffffffff16815260200190815260200160002081905550505b600073ffffffffffffffffffffffffffffffffffffffff168273ffffffffffffffffffffffffffffffffffffffff1603610a015780600260008282540392505081905550610a4e565b806000808473ffffffffffffffffffffffffffffffffffffffff1673ffffffffffffffffffffffffffffffffffffffff168152602001908152602001600020600082825401925050819055505b8173ffffffffffffffffffffffffffffffffffffffff168373ffffffffffffffffffffffffffffffffffffffff167fddf252ad1be2c89b69c2b068fc378daa952ba7f163c4a11628f55a4df523b3ef83604051610aab9190610cb2565b60405180910390a3505050565b600073ffffffffffffffffffffffffffffffffffffffff82169050919050565b6000610ae382610ab8565b9050919050565b610af381610ad8565b82525050565b6000602082019050610b0e6000830184610aea565b92915050565b600081519050919050565b600082825260208201905092915050565b60005b83811015610b4e578082015181840152602081019050610b33565b60008484015250505050565b6000601f19601f8301169050919050565b6000610b7682610b14565b610b808185610b1f565b9350610b90818560208601610b30565b610b9981610b5a565b840191505092915050565b60006020820190508181036000830152610bbe8184610b6b565b905092915050565b600080fd5b610bd481610ad8565b8114610bdf57600080fd5b50565b600081359050610bf181610bcb565b92915050565b6000819050919050565b610c0a81610bf7565b8114610c1557600080fd5b50565b600081359050610c2781610c01565b92915050565b60008060408385031215610c4457610c43610bc6565b5b6000610c5285828601610be2565b9250506020610c6385828601610c18565b9150509250929050565b60008115159050919050565b610c8281610c6d565b82525050565b6000602082019050610c9d6000830184610c79565b92915050565b610cac81610bf7565b82525050565b6000602082019050610cc76000830184610ca3565b92915050565b600080600060608486031215610ce657610ce5610bc6565b5b6000610cf486828701610be2565b9350506020610d0586828701610be2565b9250506040610d1686828701610c18565b9150509250925092565b600060ff82169050919050565b610d3681610d20565b82525050565b6000602082019050610d516000830184610d2d565b92915050565b600060208284031215610d6d57610d6c610bc6565b5b6000610d7b84828501610be2565b91505092915050565b6000610d8f82610ab8565b9050919050565b610d9f81610d84565b82525050565b6000602082019050610dba6000830184610d96565b92915050565b60008060408385031215610dd757610dd6610bc6565b5b6000610de585828601610be2565b9250506020610df685828601610be2565b9150509250929050565b7f4e487b7100000000000000000000000000000000000000000000000000000000600052602260045260246000fd5b60006002820490506001821680610e4757607f821691505b602082108103610e5a57610e59610e00565b5b50919050565b6000606082019050610e756000830186610aea565b610e826020830185610ca3565b610e8f6040830184610ca3565b949350505050565b7f4e487b7100000000000000000000000000000000000000000000000000000000600052601160045260246000fd5b6000610ed182610bf7565b9150610edc83610bf7565b9250828201905080821115610ef457610ef3610e97565b5b9291505056fea264697066735822122087cd4aa2cea79a1ea1083578417202206d83f6406025afbe94ed67ac1c1bd47664736f6c634300081c0033a2646970667358221220eb6a8208b34a923edcd90d0a609a15b96413dd3935c89f8be80654efbcf27dbe64736f6c634300081c0033",
  "linkReferences": {},
  "deployedLinkReferences": {}
}